:100000000C94B6030C94DE030C94DE030C94DE0314
:100010000C94DE030C94DE030C94DE030C94DE03DC
:100020000C94DE030C94DE030C94DE030C94DE03CC
:100030000C94DE030C94DE030C94DE030C94DE03BC
:100040000C9489200C94DE030C94DE030C94DE03E4
:100050000C94DE030C94DE030C94DE030C94DE039C
:100060000C94DE030C94DE034B2A542A5C2A5C2A8F
:100070006D2A802A892A892A892A892A5C2A5C2A67
:10008000972A9F2A9F2A9F2AB02AC62A55502A209B
:100090002A444F5720205265732020426D62004E43
:1000A000616F202053696D00417472617361722029
:1000B00020496E6963696F3F00496E6963696172C7
:1000C00020436F7A696D656E746F3F004174697685
:1000D000616E646F20426F6D626100436F6E66698E
:1000E00067757261722061747261736F00202020E5
:1000F000496E6963696F20656D2E2E2E20202000C9
:10010000436F6E6669726D652D3E204F6B20202D0A
:100110002D2D0054656D702E204174696E676964E1
:10012000610041646963696F6E617220204D616C8A
:10013000746500456C696D696E6172204D616C7407
:100140006500657374612070726F6E746121005375
:1001500075612063657276656A6100202050617266
:10016000616D6574726F7320502E492E442E2000ED
:1001700025002020202020204761730020456C6549
:10018000747269636F0020506172616D6574726F83
:100190007320556E6964616465200020202020482A
:1001A0006F7400202020436F6C6400202020204FBB
:1001B000666600202020204F66660053696D004E61
:1001C000616F00202041746976610050617373692A
:1001D000766100204F6E004F6666002700270045BD
:1001E000787465726E6F00496E7465726E6F002070
:1001F00053657420204175746F6D6174697A616311
:10020000616F200055502A202A444F57204F6D69B6
:10021000746520204F6B0027004E756D65726F204E
:100220004C7570756C6F7320200046657276757220
:10023000612020202020202000292020004C7570E3
:10024000756C6F202028002020202020204372651C
:100250006469746F7320202020202000005EBCE2BF
:10026000613FDD83C29C7E20A3FD1F419DC3217F92
:10027000FCA2401E5F01E3BD3E6082DC237D9FC186
:10028000421CFEA0E1BF5D0380DE3C62BEE0025C7A
:10029000DF81633D7C22C09E1D43A1FF4618FAA466
:1002A00027799BC584DA3866E5BB5907DB85673952
:1002B000BAE406581947A5FB7826C49A653BD98746
:1002C000045AB8E6A7F91B45C6987A24F8A6441A3A
:1002D00099C7257B3A6486D85B05E7B98CD2306E26
:1002E000EDB3510F4E10F2AC2F7193CD114FADF312
:1002F000702ECC92D38D6F31B2EC0E50AFF1134D06
:10030000CE90722C6D33D18F0C52B0EE326C8ED0F9
:10031000530DEFB1F0AE4C1291CF2D73CA947628E5
:10032000ABF517490856B4EA6937D58B5709EBB5D1
:1003300036688AD495CB2977F4AA4816E9B7550BC5
:1003400088D6346A2B7597C94A14F6A8742AC896B9
:10035000154BA9F7B6E80A54D7896B354C757075FB
:100360006C6F20002D2D2D20202D2D2D2020536150
:100370006972202D2D2D0020202020202050617515
:100380007361646F202020202000202D2050617593
:1003900073612020426F6D6261202D20002D2D2D74
:1003A00020202D2D2D2020204F6B20202D2D2D00A5
:1003B000202020544553544520444F20494F444F5A
:1003C00020200050726F78696D6F20506173736FD9
:1003D0003F20202000496E6963696F20434F4F4CD6
:1003E000494E4700496E6963696F20574849524C2E
:1003F000504F4F4C004361727265676172205265C5
:10040000636569746100204361727265676164614C
:1004100020003000205265632E2000436172726517
:100420006761722052656365697461732E2E2E00B8
:1004300053616C7661722020526563656974612036
:100440000020204D454D4F52494120204348454909
:10045000412020002020202020204154454E4341AF
:100460004F2020202020003F00300053616C766137
:1004700072202052656365697461002020526563B3
:1004800065697461202053616C7661202000202012
:100490002053616C76616E646F2E2E2E20202020FA
:1004A00000456C696D696E6172205265636569749F
:1004B00061003000456C696D696E61722052656340
:1004C00065697461005265636569746120204170DB
:1004D00061676164612020002020204170616761B4
:1004E0006E646F2E2E2E202020200020496E69631E
:1004F00069616C697A6163616F202020200020208F
:1005000020496E696369617220202020200020202C
:10051000454550524F4D202070726F6E74612020FF
:10052000002020496E696369617220454550524F31
:100530004D202020002000322E382E335243004F11
:1005400070656E204172644269722000436F6E666E
:1005500069726D652D3E204F6B2053616972002DCD
:100560002D2D204D414E204155544F20534554557B
:100570005000202D2D2D2D002D2D2D2D00202D2D29
:100580002D2D2D002D2D2D2D2D20200055502A20D4
:100590002A444F5720202D2D2D2020204F6B005511
:1005A00050202020444F5720205361697220204F53
:1005B0006B002D2D2D2020444F5720205361697250
:1005C00020204F6B0055502020202D2D2D20205312
:1005D00061697220204F6B004D4F444F2720204D02
:1005E000414E55414C00204D4F444F27204155541A
:1005F0004F4D415449434F002D2D2D2A202A2D2D9A
:100600002D2054696D6520426D62002D2D2D2A200C
:100610002A2D2D2D202D2D2D2020426D620055508C
:100620002A202A44574E20202D2D2D2020426D6255
:100630000055502A202A44574E20202D2D2D2020B1
:100640002D2D2D0055502A202A44574E20506175DB
:100650007365205354500055502A202A44574E2089
:100660005061757365202D2D2D00204155544F206C
:100670002D2D3E200025200050574D3D0020415596
:10068000544F202D2D3E20202046657276757261D4
:10069000004D454E552020434F4E46494755524147
:1006A00043414F00270020476573746F72206465D3
:1006B000205265636569746173200020204E454EA9
:1006C00048554D4120205245434549544120200082
:1006D00055502A202A444F5720566F6C746172205F
:1006E0004F6B00203E2000300041646963696F6EEB
:1006F0006F752020616775613F0054696D696E6791
:1007000020576869726C706F6F6C003A003A000095
:10071000000000240027002A000000000025002817
:10072000002B000000000023002600290004040420
:10073000040404040402020202020203030303038A
:100740000301020408102040800102040810200167
:100750000204081020000000080002010000030449
:1007600007000000000000000000943111241FBEAB
:10077000CFEFD8E0DEBFCDBF26E0A6E5B5E001C0F3
:100780001D92AD30B207E1F715E0A0E0B1E0E0EC7A
:10079000FAE602C005900D92A635B107D9F713E02D
:1007A000C6EBD3E004C02197FE010E94AA32C53BEC
:1007B000D107C9F70E9468210C945E350C940000A3
:1007C000CF9388E490E00E9466218093AE059091DB
:1007D000A405981708F059C0909199058091980543
:1007E000981353C06AEF70E084E00E94381BC091F8
:1007F000A40560E08AE00E94771B8CE593E00E94EC
:100800008C1BCA3018F481E00E9441196C2F70E0F3
:100810006F5F7F4F072E000C880B990B0E94B41D51
:100820008091B8059091B9050E94BD168091B805D8
:100830009091B905A091BA05B091BB050697A105A5
:10084000B10528F466E970E081E00E94381B64EC91
:1008500079E080E090E00E9443206EEE72E081E05B
:100860000E94381B6091A4056F5F6093A40587E523
:1008700090E00E9464218091AD058F5F8093AD056B
:1008800090E00E94662180939805CF910895CF92C1
:10089000DF92EF92FF921F93CF93DF93D82F162F03
:1008A000C42F0E947D20C090D105D090D205E09049
:1008B000D305F090D405DC01CB018C199D09AE095C
:1008C000BF09893E9340A105B10508F469C00E94A3
:1008D0007D206093D1057093D2058093D3059093CA
:1008E000D4058091D0058F5F8093D00511110CC085
:1008F0001092D005C23009F053C08091B70588230B
:1009000069F11092D0052AC04091B8055091B905FF
:100910006091BA057091BB05415051096109710997
:100920004093B8055093B9056093BA057093BB0521
:100930004091BC055091BD056091BE057091BF0509
:100940004F5F5F4F6F4F7F4F4093BC055093BD0586
:100950006093BE057093BF05C23079F28091D005D7
:100960008C33F0F01092D005D11103C01092C00565
:1009700005C08091C0058F5F8093C0056091990587
:10098000615060939905C1110BC086E590E0DF913D
:10099000CF911F91FF90EF90DF90CF900C94642146
:1009A000DF91CF911F91FF90EF90DF90CF9008954E
:1009B0000E947D206093D1057093D2058093D3056A
:1009C0009093D4051092D0050895CF93C82F60E07E
:1009D00086E00E94C11F62E083E10E94771BCC2366
:1009E00031F063E088EE95E0CF910C94532181E0E3
:1009F000CF910C94411961E086E00E94C11F62E032
:100A000083E10E94771B64E088EE95E00C9453210B
:100A100062E370E08FE00E94E518882371F0809116
:100A2000B505811105C081E08093B5050C94FB04E8
:100A30001092B50580E00C94E5040895CF93C82F7B
:100A400060E089E00E94C11F62E080E00E94771BA5
:100A5000CC2331F065E088EE95E0CF910C945321E2
:100A600081E0CF910C9441198091B6050E941E053A
:100A70008091B5050C94E5045F926F927F928F92FE
:100A80009F92AF92BF92CF92DF92EF92FF920F931D
:100A90001F93CF93DF93182F8EE090E00E94662182
:100AA000082F8FE090E00E946621C82F80E190E03F
:100AB0000E946621E82E81E190E00E946621F82ED6
:100AC00082E190E00E946621D82F83E190E00E94AD
:100AD0006621682E8091AF05811103C084E190E00A
:100AE00002C085E190E00E946621582E111102C0DB
:100AF000EE2059F08FEF810F863018F4F11007C007
:100B000004C0173021F4D11102C081E049C07090B7
:100B1000AC05D0E0BE010D2E000C880B990B7110B6
:100B200011C00E94E03320919A0530919B054091BD
:100B30009C0550919D050E94953420E030E04CE8E2
:100B400052E410C00E94E03320919A0530919B0539
:100B500040919C0550919D050E94953420E030E025
:100B60004CE052E40E9436336B017C018090B10569
:100B70009090B205A090B305B090B405652D70E0DB
:100B800080E090E00E94E0339B01AC01C501B4011C
:100B90000E94903487FD3BC0711013C08091B50551
:100BA000DF91CF911F910F91FF90EF90DF90CF9049
:100BB000BF90AF909F908F907F906F905F900C94BC
:100BC000E50480919E058823D1F0A7019601C70115
:100BD000B6010E94C5329B01AC016091A8057091DD
:100BE000A9058091AA059091AB050E94C4329B0192
:100BF000AC01C501B4010E94313387FFCFCF81E042
:100C00008093B5050E94FB041092A30534C01830F0
:100C100019F4662019F2F3CF193069F1133659F13E
:100C20008091C005801758F30E94340581E08093BD
:100C3000A3058091C00590E0C00FD11D8C179D07C2
:100C4000C4F42091B1053091B2054091B3055091A3
:100C5000B40560919A0570919B0580919C059091D7
:100C60009D050E94C432A70196010E949034181677
:100C700014F41092C005DF91CF911F910F91FF9056
:100C8000EF90DF90CF90BF90AF909F908F907F902C
:100C90006F905F900895CF93DF93EC0181E10E9404
:100CA000981F892B01F580E10E94981F892BD9F4A8
:100CB0006EE571E080E090E00E94432081E10E94B7
:100CC000981F892B81F480E10E94981F892B59F489
:100CD0001092B6051092B5050E9434051882DF9176
:100CE000CF910C946B19DF91CF9108954F925F9241
:100CF0006F927F928F929F92AF92BF92CF92DF922C
:100D0000EF92FF92CF93DF9300D000D0CDB7DEB744
:100D100083E090E00E946621B82E82E090E00E947D
:100D20006621682F70E080E090E00E94E03320E0D0
:100D300030E048EC52E40E94C43220E030E04AE760
:100D400053E40E9436332B013C0181E090E00E9485
:100D50006621682F70E064567109072E000C880B1D
:100D6000990B0E94E0336B017C0120E030E0A90187
:100D70000E94313387FDA5C020E030E0A901C30106
:100D8000B2010E94313387FD9CC06B2D70E0645628
:100D90007109072E000C880B990B0E94E0334B0160
:100DA0005C0120E030E0A9010E94313387FD89C059
:100DB000C0925605D0925705E0925805F092590519
:100DC00040925A0550925B0560925C0570925D05F9
:100DD00080925E0590925F05A0926005B0926105D9
:100DE00060918205709183058091840590918505BD
:100DF0000E94DE3320E030E04AE754E40E943633BC
:100E000069837A838B839C83C0926205D092630549
:100E1000E0926405F09265059B01AC01C301B2014B
:100E20000E9495342B013C01609366057093670521
:100E3000809368059093690529813A814B815C8193
:100E4000C501B4010E9436334B015C0160936A0511
:100E500070936B0580936C0590936D0580916E0582
:100E600090916F05019769F5A701960160E070E028
:100E7000CB010E94C4326093620570936305809336
:100E8000640590936505A301920160E070E0CB01D9
:100E90000E94C4326093660570936705809368056D
:100EA00090936905A501940160E070E0CB010E9478
:100EB000C43260936A0570936B0580936C059093C0
:100EC0006D0585E090E00E9466218093CF0584E067
:100ED00090E00E9466212AEF829FC00111240097B2
:100EE00009F44CC06C01990FEE08FF08C701B60168
:100EF0000E94E0334B015C01609182057091830593
:100F000080918405909185050E94DE339B01AC01A0
:100F1000C501B4010E9436334B015C019B01AC0159
:100F200060916605709167058091680590916905EB
:100F30000E949534609366057093670580936805F9
:100F400090936905A501940160916A0570916B0504
:100F500080916C0590916D050E94363360936A050F
:100F600070936B0580936C0590936D05C09282051C
:100F7000D0928305E0928405F09285050F900F9042
:100F80000F900F90DF91CF91FF90EF90DF90CF9077
:100F9000BF90AF909F908F907F906F905F904F9099
:100FA00008952F923F924F925F926F927F928F920D
:100FB0009F92AF92BF92CF92DF92EF92FF920F93E8
:100FC0001F93CF93DF93CDB7DEB760970FB6F8943A
:100FD000DEBF0FBECDBF182F8091A705813009F06D
:100FE00067C088E090E00E9466216AE00E948A3231
:100FF000682F70E080E090E00E94E0336B017C019C
:1010000020918F0530919005409191055091920566
:101010000E9436334B015C0160918205709183051B
:1010200080918405909185050E94DE339B01AC017F
:1010300060E070E08AEF95E40E9436332B013C01BA
:101040009B01AC0160916605709167058091680510
:10105000909169050E9495346093660570936705C9
:101060008093680590936905A301920160916A05D8
:1010700070916B0580916C0590916D050E943633DF
:1010800060936A0570936B0580936C0590936D0572
:1010900080E49FE1A0E0B0E0809382059093830517
:1010A000A0938405B093850580EA8093CF0536C070
:1010B0008091AF05882349F02AE9C22E29E9D22E72
:1010C00029ECE22E20E4F22E06C0C12CD12C90E6B1
:1010D000E92E90E4F92EA70196016091A805709180
:1010E000A9058091AA059091AB050E94C4329B018D
:1010F000AC0160918F057091900580919105909160
:1011000092050E949034812C912C540187FD06C0D9
:10111000C12CD12C80E8E82E8FE3F82E20918F058A
:10112000309190054091910550919205C501B4010F
:101130000E94C5329B01AC016091930570919405AA
:1011400080919505909196050E94C432A701960161
:101150000E94363369837A838B839C830E947D202F
:101160006D837E838F839887112309F461C120E00A
:1011700030E040E85FE369817A818B819C810E9445
:10118000313387FF49C18091A705813009F03FC005
:10119000CE0101960E94951820E030E04FE753E41D
:1011A0000E949534609300067093010680930206B6
:1011B00090930306C980DA80EB80FC802DEC3CEC38
:1011C0004CE45EE3C701B6010E94313387FF0CC0D7
:1011D00080E090E0A0E2B2E48093000690930106E4
:1011E000A0930206B09303062DEC3CEC4CEC5DE3BF
:1011F000C701B6010E94313387FF1AC11092000661
:1012000010920106109202061092030611C18091FD
:101210008E05882309F40CC10E947D2069877A8796
:101220008B879C878091760590917705A0917805B2
:10123000B091790549855A856B857C85481B590B8A
:101240006A0B7B0B8091820590918305A0918405A8
:10125000B0918505481759076A077B0708F4E8C06D
:10126000E0917005F091710580809180A280B3803B
:10127000E0917405F0917505A5019401608171817B
:10128000828193810E94C4322B013C01209166052A
:101290003091670540916805509169050E94953429
:1012A00020917A0530917B0540917C0550917D0518
:1012B0000E94C5326B017C0160937A0570937B05B7
:1012C00080937C0590937D0510918A0500918B0594
:1012D00030908C0520908D05212F302F432D522DDD
:1012E0000E94903418162CF4812F902FA32DB22D2C
:1012F00016C0209186053091870540918805509150
:1013000089052D873E874F87588BC701B6010E94FC
:10131000313387FF0CC08D859E85AF85B88980935A
:101320007A0590937B05A0937C05B0937D05209171
:101330006205309163054091640550916505C301D4
:10134000B2010E94953420917A0530917B0540913D
:101350007C0550917D050E94C5326B017C01209176
:101360007E0530917F054091800550918105C50132
:10137000B4010E94C43220916A0530916B054091FE
:101380006C0550916D050E9495349B01AC01C7011D
:10139000B6010E94C4326B017C01212F302F432DF6
:1013A000522D0E9490341816B4F0109186050091C9
:1013B00087053090880520908905212F302F432DF7
:1013C000522DB601C7010E94313387FD04C01C2D88
:1013D0000D2D3E2C2F2CE0917205F0917305812F7D
:1013E000902FA32DB22D80839183A283B38380920B
:1013F0007E0590927F05A0928005B0928105298597
:101400003A854B855C85209376053093770540932C
:101410007805509379050CC080E090E0AFE7B3E425
:101420008093000690930106A0930206B0930306F2
:10143000C0909305D0909405E0909505F0909605A6
:10144000A701960160918F0570919005809191059B
:10145000909192050E94903487FD26C02091A805A6
:101460003091A9054091AA055091AB05C701B6017D
:101470000E94903487FD18C0809197053FEF839FAD
:10148000C001112464E670E00E949632072E000C21
:10149000880B990B0E94E03360930006709301065D
:1014A000809302069093030680919F059091A0057A
:1014B000A091A105B091A205C090CF054AEFC49EAE
:1014C00060011124E12CF12C4D815E816F817885C2
:1014D000481B590B6A0B7B0BC416D506E606F706AC
:1014E00060F48C0D9D1DAE1DBF1D80939F059093D4
:1014F000A005A093A105B093A20520E030E04FE73E
:1015000053E460910006709101068091020690916B
:1015100003060E9436334B015C01C701B6010E94ED
:10152000DE339B01AC01C501B4010E9495346B010F
:101530007C0180919F059091A005A091A105B0919B
:10154000A2052D813E814F815885281B390B4A0BFE
:101550005B0BCA01B9010E94DE339B01AC01C701DC
:10156000B6010E94903418168CF481E08093B60581
:1015700061E089E00E94C11F62E080E00E94771B69
:1015800066E088EE95E00E94532104C08091B60584
:101590000E941E0560960FB6F894DEBF0FBECDBF49
:1015A000DF91CF911F910F91FF90EF90DF90CF903F
:1015B000BF90AF909F908F907F906F905F904F9073
:1015C0003F902F900895AF92BF92CF92DF92EF920B
:1015D000FF920F931F93CF93DF930E94F01580919A
:1015E000CE058823C1F10E94F81E8093CD05882383
:1015F00009F496C00E94F0158EEB0E94981EC4EC70
:10160000D5E07E011C2FAC2E89E0A80E98E0C92EF3
:10161000D12CBB24B39400E00E94F81E81110B2949
:10162000BB0CE1E0CE1AD108B9F7F70101937F01B5
:10163000AE12ECCFE0E0185F1C1739F08991E82773
:10164000F0E0E45AFD4FE491F7CF8091CC05E81724
:1016500049F00E94F01584E40E94981E81E0809376
:10166000CE055EC06091C50570E0762F662780913B
:10167000C405680F711D6C7F80E090E00E94DE332E
:1016800020E030E040E85DE30E9495346093B105CE
:101690007093B2058093B3059093B4052091AF0584
:1016A0002130A1F426E636E646EE5FE30E9495344B
:1016B00020E030E040E052E40E94C5326093B10582
:1016C0007093B2058093B3059093B405C090B105B3
:1016D000D090B205E090B305F090B40587E090E0BB
:1016E0000E94662190E0C297BC01990F880B990B6C
:1016F0000E94E03320E030E040E251E40E943633C3
:101700009B01AC01C701B6010E94C5326093B105CF
:101710007093B2058093B3059093B4051092CE05F3
:10172000DF91CF911F910F91FF90EF90DF90CF90BD
:10173000BF90AF900895FF920F931F93CF93DF93C5
:10174000D82F162FF42E6EEE72E081E00E94381B27
:10175000C0E00E94E30A2091B1053091B2054091AA
:10176000B3055091B40520938F05309390054093B5
:1017700091055093920581E0F81205C002E061E006
:1017800081E00E94121AD13021F48091AC058130A1
:1017900029F48091B6050E941E0503C081E00E94D5
:1017A000D10762E370E08EE00E94E518811114C059
:1017B000123041F462E370E08FE00E94E518882364
:1017C00049F00CC0CF3F31F469E170E082E00E9443
:1017D000381BC0E0CF5FBDCF81E001C080E0DF916A
:1017E000CF911F910F91FF9008952F923F924F92AA
:1017F0005F926F927F928F929F92AF92BF92CF92A1
:10180000DF92EF92FF920F931F93CF93DF93CDB7A9
:10181000DEB729970FB6F894DEBF0FBECDBF212CDF
:101820001EE1412E512C612C712C309099053320F2
:1018300009F450C38091A505882309F44BC3809116
:10184000A60540E060919E0581500E9447040E94D9
:10185000E30A80919A0590919B05A0919C05B09117
:101860009D058093930590939405A0939505B0935F
:1018700096058091B1059091B205A091B305B09104
:10188000B40580938F0590939005A0939105B09334
:1018900092056AEF70E08EE00E94E518882309F453
:1018A00051C064E670E083E00E94381B0E9434055A
:1018B0000E94E30AE090B805F090B9052091B105C7
:1018C0003091B2054091B3055091B4052E833F830A
:1018D000488759870E949D1661E081E00E94771B2E
:1018E00087E793E00E948C1B02E02E813F814885B0
:1018F000598560E087E00E94121AB701FF0C880B3F
:10190000990B22E046E00E94DE1D63E081E00E9428
:10191000771B84E693E00E948C1B6BE470E080E010
:1019200090E00E9443206AEF70E08EE00E94E5188C
:10193000882309F4BDCF64E670E083E00E94381B81
:101940000E943D160E944D1E8091A3058823C1F17F
:10195000E090B805F090B9052091B1053091B2053D
:101960004091B3055091B40502E061E081E00E942E
:10197000121AC7010E94BD1663E081E00E94771B26
:101980008AE893E00E948C1B6091BC057091BD05B4
:101990008091BE059091BF05A30192010E942D3553
:1019A000672B682B692B29F461E470E081E00E94C9
:1019B000381B67E870E080E090E00E9443201FC27F
:1019C0008091A605813031F08091B8059091B905DC
:1019D0000E94BD168091B8059091B905A091BA05F5
:1019E000B091BB050697A105B10528F466E970E042
:1019F00081E00E94381B8091B8059091B905A091B3
:101A0000BA05B091BB05892B8A2B8B2B29F468EE84
:101A100073E081E00E94381B8091A605883009F0B0
:101A2000F7C08091B7058111F3C089E190E00E9471
:101A300066218111EDC01091990581E08983909113
:101A4000AF058091B005911103C090E0059702C0E9
:101A500090E003970E94151920E030E040E85DE334
:101A60000E94953460939305709394058093950537
:101A7000909396050E94FB041092C0051092BC053D
:101A80001092BD051092BE051092BF052CE3129F67
:101A900060011124E12CF12C8981882309F4B0C064
:101AA00042E061E086E00E9447040E94E30A8091E0
:101AB000B1059091B205A091B305B091B4058093A2
:101AC0008F0590939005A0939105B0939205809116
:101AD000A305811103C081E00E94D10786E00E9426
:101AE0003C05A090BC05B090BD052091B10530919A
:101AF000B2054091B3055091B4052E833F834887CA
:101B000059870E949D1661E081E00E94771B80EB5F
:101B100093E00E948C1B02E02E813F81488559850D
:101B200060E087E00E94121AB501BB0C880B990B8C
:101B300022E046E00E94DE1D63E081E00E94771B08
:101B40008DE993E00E948C1B6091BC057091BD05EE
:101B50008091BE059091BF052DE230E040E050E05D
:101B60000E942D35672B682B692B29F461E470E006
:101B700081E00E94381B67E870E080E090E00E94FE
:101B80004320CE0101960E944B0662E370E08EE096
:101B90000E94E51881111DC08AE190E00E94662133
:101BA000882309F479CF3CE3839FC0011124092ED7
:101BB000000CAA0BBB0B4091BC055091BD05609178
:101BC000BE057091BF05481759076A077B0708F4DF
:101BD00063CF198281E08093B7051092BC05109203
:101BE000BD051092BE051092BF0510939905C092D5
:101BF000B805D092B905E092BA05F092BB054CCF7A
:101C00000E94FB041092A3051092C0050E943D168D
:101C10001091A605193009F044C0222009F441C0F2
:101C20002091A8053091A9054091AA055091AB05D6
:101C30006091B1057091B2058091B3059091B405A2
:101C40000E94903487FD2DC0E090E305F090E405FC
:101C50000091E5051091E605C090E70521E040E020
:101C600064E687E995E00E9426172091B10530913E
:101C7000B2054091B3055091B4056091970570E0AD
:101C800080E090E02E833F83488759870E94DE33AF
:101C900001E02E813F81488559850E94321A80E0FB
:101CA000ACC02091AF05812F90E00197211131C088
:101CB0009C01220F331F820F931FFC01EE0FFF1FA9
:101CC000EE0FFF1FE359FD4F208131814281538187
:101CD0002A833B834C835D83880F991F880F991F4C
:101CE000FC01EF58FD4F6081718182819381193031
:101CF00009F04DC08CE090E00E946621682F70E0F2
:101D000080E090E00E94DE3320E030E04CED52E4D1
:101D10002FC09C01220F331F820F931FFC01EE0F77
:101D2000FF1FEE0FFF1FE35FFD4F208131814281D6
:101D300053812A833B834C835D83880F991F880FCF
:101D4000991FFC01EF5EFD4F60817181828193815B
:101D50001930E9F48DE090E00E946621682F70E070
:101D600080E090E00E94DE3320E030E046E653E47D
:101D70002A833B834C835D836E837F838887998727
:101D80000E945019212C998588857F816E818090D1
:101D9000E3059090E405A090E505B090E60520915C
:101DA000E7052F93C12CD12C20E8E22E2EE3F22E52
:101DB0008B019C014A815B816C817D818AE995E080
:101DC0000E94B6170091B1051091B2052091B3059C
:101DD0003091B40540919A0550919B0560919C0506
:101DE00070919D058091A60581500E94781A0F90F0
:101DF0008091A305811103C081E00E94D107209149
:101E00009A0530919B0540919C0550919D056091EC
:101E1000B1057091B2058091B3059091B4050E940F
:101E2000903487FD1DC08091A605893011F42224CD
:101E3000239480919E05811113C081E080939E05BB
:101E40006AEF70E083E00E94381B8091A605813024
:101E500019F41092990504C0893011F40E94E0032E
:101E60008091A60581500E943C058091A60589308D
:101E700031F480919905831510F40E94E00385EAFE
:101E800095E00E944B0664EC79E08FE00E94E51833
:101E9000882309F4CACC8091A60590E002970CF43F
:101EA000C4CC62E370E083E00E94381B62E082E011
:101EB0000E94771B83EC93E00E948C1B0E94C51646
:101EC00041E062E081E00E949B0B882309F4ADCCE5
:101ED0000E946B1929960FB6F894DEBF0FBECDBFD6
:101EE000DF91CF911F910F91FF90EF90DF90CF90F6
:101EF000BF90AF909F908F907F906F905F904F902A
:101F00003F902F9008950F931F93CF93DF938C01F1
:101F1000D62FFC01808190E0875A9F4F0E94662156
:101F200081111DC0F8019081D13021F49A3058F40C
:101F30009F5F06C0D23029F4923028F09150F8010A
:101F40009083C1E001C0C0E0F801808190E0875A31
:101F50009F4F0E946621813011F0C111E3CF80E0D4
:101F6000DF91CF911F910F9108952F923F924F9241
:101F70005F926F927F928F929F92AF92BF92CF9219
:101F8000DF92EF92FF920F931F93CF93DF93CDB722
:101F9000DEB72B970FB6F894DEBF0FBECDBF1B8602
:101FA000CE0101965C018BE692E03C016A187B0849
:101FB0009B85913009F400C138F0923009F48BC24E
:101FC000933009F45AC3F4CF62E082E00E94771B99
:101FD00085EF93E00E948C1B0E945D1662E370E027
:101FE0008EE00E94E518DD24D3948111D12C62E3A8
:101FF00070E081E10E94E518E1E0EB87811101C00A
:102000001B8662E370E08FE00E94E518882309F4E4
:102010009DC319820AE510E0812C312CC8010E9471
:102020006621813031F4B7EA8B2E800E311001C069
:10203000382C0F5F1F4F0436110581F7882009F4F3
:102040008EC2A9E59A2E930C22242394482C512C5D
:10205000F9E54F0E511C892D90E0481659060CF4F5
:1020600075C387EA890D8983222009F4A3C060E043
:1020700089810E94D7160E944D1EE090E305F090E2
:10208000E4050091E5051091E605C090E70521E023
:10209000432D682DC5010E9426170CE612E0298108
:1020A00030E0215031094AE0429FC001439F900D2A
:1020B0001124800F911F0E946621F82E62E08BE9A7
:1020C000800F0E94771B8F2D0E94D41C0F5F1F4F23
:1020D000063782E0180719F76091E705C5010E94ED
:1020E000830F62E370E08FE00E94E518882339F0E7
:1020F0000E9431160E945E19F4E69F2E212C62E3A5
:1021000070E08EE00E94E518882309F4ADCF0E94AC
:102110006B19198182E00E94571963E270E082E036
:102120000E94381B63E081E00E94771B8BE194E002
:102130000E948C1B6CED75E080E090E00E944320D3
:1021400063E081E00E94771B84E194E00E948C1B95
:102150001A3020F482E194E00E948C1B812F0E94AF
:10216000001C86E094E00E948C1B6CED75E080E022
:1021700090E00E944320898190E00197E4E3E89F8A
:102180008001E99F100D11240C591F4FEEE1EE2E36
:10219000F12CC8010E946621682FC7010E946421AA
:1021A0000F5F1F4FFFEFEF1AFF0A22E5E216F1045F
:1021B00081F7212C93944FCF62E082E00E94771B3D
:1021C00080E394E00E948C1B0E94651662E370E03D
:1021D0008EE00E94E518DD24D3948111D12C62E3B6
:1021E00070E080E10E94E518182F62E370E081E161
:1021F0000E94E518811106C041E04B87112321F0B0
:102200001B8602C082E08B8762E370E08FE00E9451
:10221000E518882309F49AC2312C1AE5812F90E041
:102220000E946621811104C077EA372E310E13E631
:102230001F5F143699F7311025C082E00E945719AC
:102240006DE770E083E00E94381B63E081E00E944C
:10225000771B84E594E00E948C1B6CED75E080E0B8
:1022600090E00E94432063E081E00E94771B81E4BC
:1022700094E00E948C1B60ED77E080E090E00E948B
:10228000432064C281E689830E946B1961E0832D3B
:102290000E94D716212C822C912C2501480C591C08
:1022A000F201108162E087E0820D0E94771B812F8E
:1022B0000E94D41C6091F805862F81608093F805F8
:1022C000696088EE95E00E9459210E944D1EE090C1
:1022D000E305F090E4050091E5051091E605C09056
:1022E000E70521E040E26AE7C2010E942617F201F9
:1022F000808181528F3030F48091E705813011F474
:1023000020E32083F501E80DF91D80818A5387328F
:1023100030F48091E705813011F441E64083F50106
:10232000E80DF91D80818A53873230F48091E705EA
:10233000823011F489E38083F501E80DF91D808175
:10234000803330F48091E705823011F490E290837D
:1023500062E370E08FE00E94E518882331F0239457
:10236000F501E20DF11D21E6208381E10E94981F15
:10237000892BB1F480E10E94981F892B89F46EE5C6
:1023800071E080E090E00E94432081E10E94981F6C
:10239000892B31F480E10E94981F892B09F4F3C145
:1023A00062E370E08EE00E94E518882321F022208D
:1023B00009F471CF2A9499E0921508F06CCF6091DE
:1023C000F8056E7F6093F805686088EE95E00E94DE
:1023D000592162E081E00E94771B8BE694E00E9425
:1023E0008C1BE9E0E31520F089E694E00E948C1B49
:1023F000832D0E94001C87E694E00E948C1B0E94A3
:10240000C51642E062E082E00E949B0B882309F43B
:1024100069C182E00E94571963E270E085E00E9482
:10242000381B63E081E00E94771B8EE894E00E94F5
:102430008C1B6CED75E080E090E00E94432063E02F
:1024400081E00E94771B8BE794E00E948C1B6CED6F
:1024500075E080E090E00E944320832C912C1401D1
:10246000F1E02F1A310884E3829D8001839D100DD5
:1024700011240C591F4F5EE1452E512CC2010E94C0
:102480006621682FC8010E9464210F5F1F4F2FEF44
:10249000421A520A42E54416510481F78AE0829DAD
:1024A0007001839DF00C11248501E60CF71C4AE0B5
:1024B000542E5A0CF80161918F01C7018E0F9F1F96
:1024C0000E9464215012F6CF61E0C401875A9F4FE9
:1024D0000E9464213BC162E082E00E94771B81EA96
:1024E00094E00E948C1B0E94651662E370E08EE00F
:1024F0000E94E518DD24D3948111D12C62E370E0B1
:1025000080E10E94E518882311F0F1E0FB8762E387
:1025100070E081E10E94E518882311F023E02B8709
:1025200062E370E08FE00E94E518882309F40EC191
:1025300019820AE510E0812C312CC8010E94662125
:10254000813031F437EA832E800E311001C0382CEF
:102550000F5F1F4F0436110581F7811003C00E94E1
:10256000611BF4C029E5922E930C22242394482C5D
:10257000512C49E5440E511C892D90E0481659060E
:102580000CF4E4C087EA890D8983222009F473C022
:10259000198162E080E00E94771B84EB94E00E9446
:1025A0008C1B1A3020F482EB94E00E948C1B812F4C
:1025B0000E94001C81E00E9441190E94C5160E94E1
:1025C0004D1EE090E305F090E4050091E5051091C3
:1025D000E605C090E70521E0432D682DC5010E9466
:1025E00026176091E705C5010E94830F62E370E042
:1025F0008FE00E94E518882339F00E9431160E946E
:102600005E1994E6992E212C62E370E08EE00E9420
:10261000E518882309F4B9CF82E00E94571963E2D4
:1026200070E082E00E94381B63E081E00E94771B2B
:1026300088ED94E00E948C1B6CED75E080E090E0EA
:102640000E94432063E081E00E94771B85EC94E0C8
:102650000E948C1B6CED75E080E090E00E944320AE
:10266000898190E060E0875A9F4F0E946421212C6D
:1026700084E6982E8ACF93947FCF62E082E00E9416
:10268000771B8BEE94E00E948C1B0E94551662E330
:1026900070E08EE00E94E518DD24D3948111D12CE6
:1026A00062E370E080E10E94E518882311F082E087
:1026B0008B8762E370E08FE00E94E518882309F4BD
:1026C00045C062E082E00E94771B8EEF94E00E949A
:1026D0008C1B0E94C51642E062E082E00E949B0BC8
:1026E000811105C00E9431160E945E192FC082E040
:1026F0000E94571963E081E00E94771B81E295E018
:102700000E948C1B6CED75E080E090E00E944320FD
:102710006BE470E083E00E94381B63E081E00E947C
:10272000771B8EE095E00E948C1B6CED75E080E0DD
:1027300090E00E9443200AE510E060E0C8010E949A
:1027400064210F5F1F4F04361105B9F7D11030CC4B
:102750000E945E192B960FB6F894DEBF0FBECDBF58
:10276000DF91CF911F910F91FF90EF90DF90CF906D
:10277000BF90AF909F908F907F906F905F904F90A1
:102780003F902F90089589E0821538F0F501E20D11
:10279000F11D40E240832394F6CF69E0262E00CE5F
:1027A0008F929F92AF92BF92CF92DF92EF92FF9261
:1027B0000F931F93CF93DF931F92CDB7DEB719828C
:1027C0000E94340588EE95E00E945C2161E083E080
:1027D0000E94771B85ED93E00E948C1B0E94C5161A
:1027E00042E062E082E00E949B0B89830E943D16DA
:1027F0008981882309F452C00E94E30A0E940805D7
:102800000E944D1E9091AF058090E3059090E405E5
:10281000A090E505B090E6058091E705911110C004
:102820008F93C12CD12C90E8E92E9EE3F92E00E085
:1028300010E020E231E440E050E060EF71E40FC0CE
:102840008F93C12CD12C80E8E82E8EE3F82E00E087
:1028500010E028E432E440E050E06CEA72E48AE9F7
:1028600095E00E94B6170F900091B1051091B20546
:102870002091B3053091B40540919A0550919B0584
:1028800060919C0570919D0589E00E94781ACE01A7
:1028900001960E944B068981811109C08BE190E06D
:1028A0000E9466218130C9F40E947B1416C02091D9
:1028B0009A0530919B0540919C0550919D05609132
:1028C000B1057091B2058091B3059091B4050E9455
:1028D000313318160CF48CCFE1CF0F90DF91CF91EC
:1028E0001F910F91FF90EF90DF90CF90BF90AF902E
:1028F0009F908F900895AF92BF92CF92DF92EF9208
:10290000FF920F931F93CF93DF9300D0CDB7DEB725
:102910001092BC051092BD051092BE051092BF0525
:102920001092B8051092B9051092BA051092BB0525
:102930001A828BE190E00E9466219091AF0582306F
:1029400061F4911105C080E090E0AAEAB2E410C001
:1029500080E090E0A9E3B3E40BC0911105C080E0F2
:1029600090E0A0EFB1E404C080E090E0ACEAB2E413
:1029700080939A0590939B05A0939C05B0939D0529
:1029800081E00E94E50488EE95E00E945C2161E010
:1029900082E00E94771B84EE93E00E948C1B0E94D1
:1029A000C51642E062E082E00E949B0B8A83882386
:1029B00009F401C111E06981112351F170E080E057
:1029C00090E00E946D160E944D1EE090E305F0908D
:1029D000E4050091E5051091E605C090E70521E0CA
:1029E00041E06AE0CE0101960E94261762E370E0A2
:1029F0008FE00E94E51811E0811110E062E370E0C1
:102A00008EE00E94E5188823B1F21A8210E0D3CF3D
:102A10002CE3629FC0011124092E000CAA0BBB0BF2
:102A20008093B8059093B905A093BA05B093BB0500
:102A30000E943D1681E08093B505D12C8A818823C0
:102A400009F4B9C00E94E30A8091B5050091B1056F
:102A50001091B2052091B3053091B40540919A05CB
:102A600050919B0560919C0570919D05882311F004
:102A70008AE001C08BE00E94781A8BE190E00E940E
:102A8000662120919A0530919B0540919C055091BB
:102A90009D05823069F46091B1057091B205809115
:102AA000B3059091B4050E94313318169CF083C091
:102AB0006091B1057091B2058091B3059091B40514
:102AC0000E943133181624F08091B505811102C09F
:102AD000DD2039F00E94FB0441E061E080E00E94CB
:102AE00047040E940805D090B505D1104FC062E39D
:102AF00070E08EE00E94E5188823B1F1B98088EE7D
:102B000095E00E945C21AA24A3946981AA2071F116
:102B100070E080E090E00E946D160E944D1EE090F3
:102B2000E305F090E4050091E5051091E605C090FD
:102B3000E70521E041E06AE0CE0101960E942617F8
:102B400062E370E08FE00E94E518882319F00E948C
:102B50003D16A12C62E370E08EE00E94E518882308
:102B6000A1F20E943D16B982A12CCFCF2CE3629F27
:102B7000C0011124092E000CAA0BBB0B8093B805D1
:102B80009093B905A093BA05B093BB058091B805A1
:102B90009091B905A091BA05B091BB050097A10528
:102BA000B10549F00E94BD16CE0102960E944B0667
:102BB0008A81811143CF8BE190E00E9466218230AF
:102BC00011F40E94D0130F900F90DF91CF911F91BD
:102BD0000F91FF90EF90DF90CF90BF90AF9008954E
:102BE0009091D505E091D605F091D705F894218113
:102BF000892F80952823218378943DE743E050E096
:102C0000315001F1DA011197F1F720812923C1F345
:102C1000F8942281282322832181922B9183789416
:102C2000ABE7B7E01197F1F7F8949181892381839D
:102C300083E191E00197F1F78081789483E696E053
:102C40000197F1F78CEC0C94981E8091AF058111DF
:102C500003C060E371E003C068E371E080E00C94BE
:102C6000071C88EE95E00E945C2160E081E00E94F4
:102C7000771B81E996E00C948C1B88EE95E00E940E
:102C80005C2160E080E00E94771B86EE95E00C946A
:102C90008C1B88EE95E00E945C2160E081E00E9440
:102CA000771B88ED95E00C948C1B63E081E00E941B
:102CB000771B85EC95E00C948C1B63E081E00E940F
:102CC000771B82EB95E00C948C1B63E081E00E9403
:102CD000771B8FE995E00C948C1BCF93DF9300D08A
:102CE00000D0CDB7DEB79B01AC0161E082E0298363
:102CF0003A834B835C830E94771B8AEF96E00E94A5
:102D00008C1BACE3B0E029813A814B815C810E944D
:102D1000223522E046E00E94DE1D0F900F900F90BA
:102D20000F90DF91CF910C94651663E081E00E94D3
:102D3000771B8CE895E00C948C1B60E080E00E948F
:102D4000771B84E895E00E948C1B60E08EE00E9477
:102D5000771B8DE795E00E948C1B62E081E00E946A
:102D6000771B88E795E00E948C1B62E08EE00E9452
:102D7000771B82E795E00C948C1BBC01990F880BA4
:102D8000990B22E04BE00C94DE1D63E081E00E9491
:102D9000771B8CE495E00C948C1B61E082E00E9430
:102DA000771B89EE96E00E948C1B0C94C516CF937E
:102DB000DF93C82FD62F62E082E00E94771BCA30D3
:102DC00020F487EE96E00E948C1B8C2F0E94001C42
:102DD00083EE96E00E948C1BD11104C0DF91CF914D
:102DE0000C94C51663E081E00E94771B80ED96E0AD
:102DF000DF91CF910C948C1B60E080E00E94771BE8
:102E00008FE395E00E948C1B60E08CE00E94771BB2
:102E100087E395E00E948C1B67E088EE95E00C94B8
:102E200053210F931F93CF93DF938A01E9010E94EF
:102E3000771BC8010E94AD1BBE01DD0F880B990BEB
:102E4000DF91CF911F910F910C9443204F925F928D
:102E50006F927F929F92AF92BF92CF92DF92EF924A
:102E6000FF920F931F93CF93DF935C01D62E942E86
:102E7000C22F27013801DC2DFC018081681708F47E
:102E80006083F5018081891508F4908263E270E027
:102E900080E090E00E944320D13011F480E103C033
:102EA000D23031F481E10E94981F892B21F04DC06E
:102EB000DD2309F44AC00E947D20DC01CB01841986
:102EC0009509A609B709803A9F40A105B10528F0E8
:102ED0008AE0C89F9001112414C00E947D20DC016B
:102EE000CB0184199509A609B709803D9740A10532
:102EF000B10528F0F5E0CF9F9001112402C02C2FDE
:102F000030E0D13081F4F5018081B901680F711D85
:102F10004D2D50E04617570714F4D08216C0280FE5
:102F2000F501208312C0D23081F4F5018081482F51
:102F300050E0421B530B692D70E04617570714F4FD
:102F4000908203C0821BF501808380E0DF91CF91E6
:102F50001F910F91FF90EF90DF90CF90BF90AF90B7
:102F60009F907F906F905F904F9008952F923F9227
:102F70004F925F926F927F928F929F92AF92BF9289
:102F8000CF92DF92EF92FF920F931F93CF93DF9335
:102F900000D000D0CDB7DEB71C0149835A836B83C4
:102FA0007C8328013901198D9A01AB01DC016D91F7
:102FB0007D918D919C910E94903418164CF48981DA
:102FC0009A81AB81BC81F10180839183A283B38319
:102FD000A3019201D1016D917D918D919C910E94EF
:102FE000313387FF05C0F1014082518262827382D2
:102FF00063E270E080E090E00E944320113011F421
:1030000080E103C0123031F481E10E94981F892BC6
:1030100021F071C0112309F46EC00E947D20DC01F3
:10302000CB0188199909AA09BB09803A9F40A105DB
:10303000B10528F020E030E040EA51E411C00E94E0
:103040007D20DC01CB0188199909AA09BB09803DC3
:103050009740A105B10550F020E030E040E850E491
:10306000C701B6010E9495346B017C01113021F536
:10307000D1012D913D914D915C91C701B6010E9406
:10308000C5326B017C0129813A814B815C810E94B0
:103090009034181654F489819A81AB81BC81F10176
:1030A00080839183A283B38326C0D101CD92DD9228
:1030B000ED92FC9213971FC01230E9F4A70196011C
:1030C000F10160817181828193810E94C4326B0120
:1030D0007C01A30192010E94313387FF07C0D10117
:1030E0004D925D926D927C92139705C0F101C08262
:1030F000D182E282F38260E070E0CB010F900F900A
:103100000F900F90DF91CF911F910F91FF90EF9053
:10311000DF90CF90BF90AF909F908F907F906F90F7
:103120005F904F903F902F9008958F929F92AF9213
:10313000BF92CF92DF92EF92FF92CF93DF93EC0199
:1031400088809980AA80BB80C501B4010E94A83301
:10315000072E000C880B990B0E94E0336B017C0159
:103160009B01AC01C501B4010E94C43220E030E0F3
:103170004AE754E40E94953420E030E041E653E40D
:103180000E9436330E94A833072E000C880B990B3F
:103190000E94E03320E030E040E85EE30E94953496
:1031A0009B01AC01C701B6010E94C53268837983D7
:1031B0008A839B83DF91CF91FF90EF90DF90CF9038
:1031C000BF90AF909F908F9008950F931F93CF93D0
:1031D000C82F8B010E94981F892B11F080E011C02D
:1031E000B801110F880B990B0E9443208C2F0E946D
:1031F000981F892B99F78C2F0E94981F892BD9F340
:1032000081E0CF911F910F9108951F93CF93DF938A
:10321000EC01162F672F0E946421612FCE010196C9
:10322000DF91CF911F910C9464210F931F93CF9343
:103230008C0101960E946621C82FC8010E94662158
:103240006C2F70E0782B80E090E00E94DE33CF910D
:103250001F910F9108950F931F93CF938C010196A7
:103260000E946621C82FC8010E9466216C2F70E061
:10327000782B80E090E00E94DE33CF911F910F9178
:103280000895CF93DF93D82FC0E0CD1731F085E3B9
:1032900095E00E948C1BCF5FF8CFDF91CF9108950E
:1032A00062E081E00E94771B89E00C944119682F4D
:1032B00080E00E94771B84E10C94411961E080E07A
:1032C0000E94771B86EA96E00E948C1B82E00E9497
:1032D00057190C94651682E00E94571983E00C94EC
:1032E0005719CF92DF92EF92FF92CF93DF936B014A
:1032F0007C01D42F20E030E040E251EC0E943133D9
:1033000018165CF0C1E020E030E048EC52ECC70158
:10331000B6010E94903418160CF0C0E020E030E0B6
:10332000A901C701B6010E94313387FF0BC020E01D
:1033300030E040E251ECC701B6010E94903418160B
:103340000CF4C2E020E030E040E251E4C701B601F5
:103350000E94313387FF09C020E030E0A901C70196
:10336000B6010E94903487FFC3E020E030E048ECD3
:1033700052E4C701B6010E94313387FF0AC020E042
:1033800030E040E251E4C701B6010E94903487FF6B
:10339000C2E020E030E04AE754E4C701B6010E94F1
:1033A000313387FF0AC020E030E048EC52E4C70127
:1033B000B6010E94903487FFC1E020E030E04AE788
:1033C00054E4C701B6010E949034880F880B8C2307
:1033D0008D0FDF91CF91FF90EF90DF90CF900C9405
:1033E0004119CF92DF92EF92FF926C0162E08FE081
:1033F0000E94771B0D2C000CEE08FF08C701B601D8
:103400000E94E0334FEF5FEF0E947119C701B601D0
:103410000E94B41D84EA96E0FF90EF90DF90CF9079
:103420000C948C1BCF92DF92EF92FF920F93690165
:103430007A01643010F40E94771B4FEF5FEFC701F1
:10344000B6010E947119402FC701B6010E94DF1C0E
:1034500060E088EE95E00F91FF90EF90DF90CF90C5
:103460000C945321CF92DF92EF92FF920F93CF9360
:10347000DF9300D000D0CDB7DEB76B017C01013007
:1034800081F460E080E029833A834B835C830E946F
:10349000771B8DE796E00E948C1B5C814B813A8103
:1034A000298102E061E081E00E94121A62E081E07D
:1034B0000E94771B88E796E00E948C1B4FEF5FEF1E
:1034C000C701B6010E94711940E0C701B6010E9410
:1034D000DF1C85E796E00F900F900F900F90DF9123
:1034E000CF910F91FF90EF90DF90CF900C948C1BB9
:1034F000BF92CF92DF92EF92FF920F931F93CF93E1
:10350000DF9300D000D0CDB7DEB7B82E6A017B01C3
:10351000A901980160E080E029833A834B835C83B2
:103520000E94771B8AE696E00E948C1BEB2DF0E050
:10353000EE0FFF1FE950FE4F808191810E94AD1B6D
:1035400002E029813A814B815C8161E081E00E9447
:10355000121A61E088E00E94771B84E00E94411902
:1035600020E030E048EC52E4C701B6010E9431335C
:1035700087FF03C081E00E94411942E0C701B60104
:103580000E94DF1C62E088EE95E00E94532163E018
:1035900081E00E94771BB11004C087E596E00E948D
:1035A0008C1B8FEF8B0D873028F484E496E00E940B
:1035B0008C1B0CC088E0B81203C081E396E011C0F8
:1035C00089E0B81203C08EE196E00BC08AE0B81221
:1035D00003C08BE096E005C08BE0B81211C088EF05
:1035E00095E00F900F900F900F90DF91CF911F916A
:1035F0000F91FF90EF90DF90CF90BF900C948C1BB9
:103600000F900F900F900F90DF91CF911F910F911E
:10361000FF90EF90DF90CF90BF9008950F93CF93DE
:10362000DF9300D000D0CDB7DEB79B01AC0169833A
:103630003A834B835C830E94FC1602E029813A8125
:103640004B815C8161E086E00E94121A82E00E9458
:10365000571963E081E00E94771B8FE595E00F909A
:103660000F900F900F90DF91CF910F910C948C1BC6
:10367000CF92DF92EF92FF92CF93DF93D82FC0E0EB
:103680006B01770FEE08FF08CD17A1F061E088E02D
:103690000E94C11FC701B6010E94432060E088E07C
:1036A0000E94C11F6BE470E080E090E00E94432024
:1036B000CF5FEACFDF91CF91FF90EF90DF90CF9077
:1036C000089582E00E94571962E370E083E00E944F
:1036D000381B63E081E00E94771B8BEB96E00E9431
:1036E0008C1B6CED75E080E090E00C94432064301E
:1036F00008F063E09091FB05691710F06FEF690F18
:10370000E62FF0E0E851FA4F9489682F690F60685E
:1037100088EE95E00C9459210F931F93CF93DF937C
:103720008C01C0E0D0E0F801EC0FFD1F649166232E
:1037300071F0E091E805F091E9050190F081E02D4C
:1037400088EE95E00995892B11F02196ECCFCE01FA
:10375000DF91CF911F910F910895009769F0FC01BF
:1037600001900020E9F73197AF01481B590BBC01CC
:1037700088EE95E00C941D1F80E090E008958F92F4
:103780009F92AF92BF920F931F93CF93DF93CDB7CA
:10379000DEB7A1970FB6F894DEBF0FBECDBF19A25A
:1037A000423008F44AE08E010F5D1F4F842E912CA9
:1037B000A12CB12CA50194010E942D35E62FB90151
:1037C000CA0101501109EA3014F4E05D01C0E95C5E
:1037D000D801EC93232B242B252B61F7C8010E94E1
:1037E000AD1BA1960FB6F894DEBF0FBECDBFDF9123
:1037F000CF911F910F91BF90AF909F908F900895A0
:10380000682F70E080E090E04AE00C94BF1BEF92DC
:10381000FF920F931F93CF93DF931F92CDB7DEB725
:10382000162F877028E0829FC0011124682F6064E2
:1038300088EE95E079830E945921E12E7981F72E57
:103840008701085F1F4FF70161917F0188EE95E0C6
:103850000E945321E016F106B1F70F90DF91CF914E
:103860001F910F91FF90EF900895EF92FF920F93A9
:103870001F93CF93DF93EC01423018F08F8588605F
:103880008F874B8B1C8A80E48D8B6E8B70E0605C25
:103890007F4F6F8B61E08C810E9407208D818F3F6D
:1038A00019F061E00E94072061E08E810E940720EC
:1038B0007E0187E0E80EF11C00E010E08F8584FDBA
:1038C00003C084E090E002C088E090E00817190788
:1038D0004CF461E0F70181917F010E9407200F5FA6
:1038E0001F4FECCF8BE39DE00197F1F760E08C81F7
:1038F0000E94C11F60E08E810E94C11F8D818F3F99
:1039000019F060E00E94C11F6F8564FD1DC063E077
:10391000CE010E94D3200BE416E4C8010197F1F711
:1039200063E0CE010E94D320C8010197F1F763E064
:10393000CE010E94D32083E592E00197F1F762E087
:10394000CE010E94D32016C06062CE010E94592190
:103950008BE496E40197F1F76F856062CE010E94D7
:10396000592183E592E00197F1F76F856062CE01FE
:103970000E9459216F856062CE010E94592184E026
:10398000888B6CE0CE010E945921CE010E945C21FF
:1039900082E0898B66E0CE01DF91CF911F910F917C
:1039A000FF90EF900C945921E091E805F091E90522
:1039B0000190F081E02D682F88EE95E009944F92F8
:1039C0005F926F927F928F929F92AF92BF92CF92AF
:1039D000DF92EF92FF926B017C01B42E9B01AC0150
:1039E0000E940235882319F086E495E027C026015D
:1039F0003701E89477F82FEF3FEF4FE75FE7C30118
:103A0000B2010E94023581110DC02FEF3FEF4FE749
:103A10005FE7C301B2010E94313318161CF48AE437
:103A200095E00CC02FEF3FEF4FE75FE4C701B60111
:103A30000E949034181684F48EE495E0FF90EF9085
:103A4000DF90CF90BF90AF909F908F907F906F90BE
:103A50005F904F900C94AD1B2FEF3FEF4FE75FEC63
:103A6000C701B6010E94313387FDE6CF20E030E088
:103A7000A901C701B6010E94313387FF09C08DE259
:103A80000E94D41C4C01F7FAF094F7F8F09402C0AD
:103A9000812C912CA12C60E070E080E09FE3AB14BE
:103AA00041F020E030E040E251E40E943633A3943C
:103AB000F6CF9B01AC01C701B6010E94C5322B01B4
:103AC0003C010E94AF336B017C010E94DE339B01FD
:103AD000AC01C301B2010E94C4322B013C014AE097
:103AE000C701B6010E94BF1B7C01E80CF91CBB207A
:103AF00031F082E595E00E94AD1BE80EF91EDB2C4B
:103B0000DD2021F120E030E040E251E4C301B201C8
:103B10000E9495342B013C010E94AF334B01A12C34
:103B2000B12C4AE0C501B4010E94BF1BE80EF91E8A
:103B3000C501B4010E94DE339B01AC01C301B20197
:103B40000E94C4322B013C01DA94DACFC701FF9006
:103B5000EF90DF90CF90BF90AF909F908F907F902D
:103B60006F905F904F900895CF92DF92EF92FF9207
:103B7000CF93DF9397FF19C06B017C018DE20E9408
:103B8000D41CEC0166277727CB016C197D098E09BF
:103B90009F094AE00E94BF1B8C0F9D1FDF91CF91B0
:103BA000FF90EF90DF90CF9008954AE0DF91CF91A2
:103BB000FF90EF90DF90CF900C94BF1B4F925F92DD
:103BC0006F927F928F929F92AF92BF92CF92DF922D
:103BD000EF92FF920F931F93CF93DF932B013C0142
:103BE000042F122F20E13EE040E050E00E942D35EE
:103BF000C22F2CE3C22ED12CE12CF12CA70196016F
:103C00000E942D3549015A01C301B201A701960155
:103C10000E942D356B017C0162E0802F0E94771B92
:103C2000123031F4CA3020F484E595E00E94AD1BD7
:103C30008C2F0E94001C8DE097E00E948C1B8AE074
:103C400088169104A104B10420F484E595E00E9453
:103C5000AD1B882D0E94001C8BE097E00E948C1BFE
:103C60008AE0C816D104E104F10420F484E595E06B
:103C70000E94AD1B8C2DDF91CF911F910F91FF9072
:103C8000EF90DF90CF90BF90AF909F908F907F90FC
:103C90006F905F904F900C94001CCF93DF9380E166
:103CA0000E94981F892BB9F48091E705813051F06B
:103CB0000E947D206093E3057093E4058093E50501
:103CC0009093E60581E08093E70563E270E080E091
:103CD00090E00E94432081E10E94981F892BB9F453
:103CE0008091E705823051F00E947D206093E305CA
:103CF0007093E4058093E5059093E60582E0809358
:103D0000E70563E270E080E090E00E94432080E1FC
:103D10000E94981FEC0181E10E94981F892B21F0DD
:103D2000CD2B11F01092E70580E0DF91CF9108953F
:103D3000CF92DF92EF92FF920F931F93CF93DF9377
:103D400028E030E041E06FEF70E09FE0C92ED12C19
:103D5000C3E2D0E007ED10E09091D505E091D605E3
:103D6000F091D705592F5095F42EF82281F0F89450
:103D7000F2805F2152835181592B5183DE011197CB
:103D8000F1F75281952B92837894F8010FC0F89443
:103D9000F2805F2152835181592B5183DB011197AE
:103DA000F1F75281952B92837894F6013197F1F7D0
:103DB000440F2150310981F6F894E091D605F09135
:103DC000D70591818091D505809598239183E091C5
:103DD000D605F091D7059281892382837894DF916B
:103DE000CF911F910F91FF90EF90DF90CF900895AA
:103DF0008091D505E091D605F091D705F894918191
:103E0000982B91832281982F909529232283A7E0D4
:103E1000B0E01197F1F7218192239183A3E2B0E002
:103E20001197F1F790817894EFECF0E03197F1F78A
:103E3000982381E009F480E00895CF92DF92EF9219
:103E4000FF920F931F93CF93DF936C017A018B0145
:103E5000C0E0D0E0CE15DF0589F0D8016D918D016D
:103E6000D601ED91FC910190F081E02DC6010995FC
:103E7000892B11F47E0102C02196ECCFC701DF919E
:103E8000CF911F910F91FF90EF90DF90CF90089509
:103E9000833081F028F4813099F08230A1F00895C8
:103EA0008730A9F08830B9F08430D1F48091800057
:103EB0008F7D03C0809180008F778093800008956C
:103EC00084B58F7702C084B58F7D84BD08958091BD
:103ED000B0008F7703C08091B0008F7D8093B000D9
:103EE00008953FB7F8948091090690910A06A09131
:103EF0000B06B0910C0626B5A89B05C02F3F19F004
:103F00000196A11DB11D3FBFBA2FA92F982F882759
:103F1000820F911DA11DB11DBC01CD0142E0660FB4
:103F2000771F881F991F4A95D1F708950E9407357A
:103F3000CF93DF93282F30E0F901EB5AF84F8491AB
:103F4000F901EF5BF84FD491F901E35DF84FC491AB
:103F5000CC2391F081110E94481FEC2FF0E0EE0F6E
:103F6000FF1FED5DF84FA591B491EC91ED2381E039
:103F700090E021F480E002C080E090E0DF91CF91FA
:103F800008951F93CF93DF93282F30E0F901EB5A68
:103F9000F84F8491F901EF5BF84FD491F901E35D9B
:103FA000F84FC491CC23C9F0162F81110E94481FED
:103FB000EC2FF0E0EE0FFF1FE75EF84FA591B491F4
:103FC0008FB7F894111105C09C91ED2FE095E9236E
:103FD00002C0EC91ED2BEC938FBFDF91CF911F913D
:103FE0000895CF93DF93EC0160E08E810E94C11FA2
:103FF00061E08E810E94C11F60E08E810E94C11F1E
:104000008BE891E00197F1F7DF91CF910895CF937D
:10401000DF9390E0FC01EF5BF84F2491FC01E35D3E
:10402000F84F8491882361F190E0880F991FFC017B
:10403000E15FF84FC591D491FC01E75EF84FA5917F
:10404000B491611109C09FB7F894888120958223AB
:104050008883EC912E230BC0623061F49FB7F894F3
:104060003881822F809583238883EC912E2B2C938B
:104070009FBF06C08FB7F894E8812E2B28838FBF8F
:10408000DF91CF9108958F929F92AF92BF92CF927E
:10409000DF92EF92FF926B017C010E94711F4B0136
:1040A0005C01C114D104E104F104F1F00E94711F1C
:1040B000DC01CB0188199909AA09BB09883E934004
:1040C000A105B10570F321E0C21AD108E108F10899
:1040D00088EE880E83E0981EA11CB11CC114D10487
:1040E000E104F10419F7DDCFFF90EF90DF90CF905E
:1040F000BF90AF909F908F9008952FB7F8946091E4
:1041000005067091060680910706909108062FBF5C
:1041100008951F920F920FB60F9211242F933F9381
:104120008F939F93AF93BF9380910506909106065E
:10413000A0910706B09108063091040623E0230FF2
:104140002D3720F40196A11DB11D05C026E8230FCF
:104150000296A11DB11D209304068093050690933D
:104160000606A0930706B093080680910906909171
:104170000A06A0910B06B0910C060196A11DB11D77
:104180008093090690930A06A0930B06B0930C0641
:10419000BF91AF919F918F913F912F910F900FBE43
:1041A0000F901F901895CF92DF92EF92FF920F938E
:1041B0001F93CF93DF937C016C0187E0C80ED11C65
:1041C000C0E0D0E0062F10E0B8010C2E02C07595BB
:1041D00067950A94E2F76170F60181916F010E9480
:1041E000C11F2196C430D10579F7C701DF91CF9166
:1041F0001F910F91FF90EF90DF90CF900C94F11FE3
:10420000CF92DF92EF92FF920F931F93CF93DF93A2
:10421000EC01F62E642F8C810E94C11F8D818F3F8F
:1042200019F060E00E94C11F8F850F2D10E084FF00
:1042300025C06E0187E0C80ED11CE12CF12CB8011D
:104240000E2C02C0759567950A94E2F76170F6012D
:1042500081916F010E94C11FFFEFEF1AFF0A88E0F2
:10426000E816F10461F7CE01DF91CF911F910F9114
:10427000FF90EF90DF90CF900C94F11FB80184E095
:10428000759567958A95E1F7CE010E94D3206F2D31
:10429000CE01DF91CF911F910F91FF90EF90DF90B2
:1042A000CF900C94D32041E00E94002181E090E067
:1042B000089540E00C94002161E00E9459218BE3B5
:1042C0009FE10197F1F708950C9414350C940C3587
:1042D000CF93DF93CDB7DEB7C255D1090FB6F894AF
:1042E000DEBF0FBECDBF789484B5826084BD84B537
:1042F000816084BD85B5826085BD85B5816085BDE1
:1043000080916E00816080936E0010928100809198
:104310008100826080938100809181008160809320
:104320008100809180008160809380008091B10045
:1043300084608093B1008091B00081608093B00070
:1043400080917A00846080937A0080917A00826004
:1043500080937A0080917A00816080937A008091C6
:104360007A00806880937A001092C10044E064E192
:1043700088EE95E00E94351C62E080E10E940720F3
:1043800062E081E10E94072062E08EE00E94072047
:1043900062E08FE00E94072061E089E00E94072030
:1043A00061E086E00E94072061E088E00E9407202B
:1043B00080918E05811148C0E0917205F0917305DE
:1043C000C080D180E280F380C0927A05D0927B05D4
:1043D000E0927C05F0927D05E0917005F091710509
:1043E00080819181A281B38180937E0590937F0526
:1043F000A0938005B093810580908A0590908B05ED
:10440000A0908C05B0908D05A5019401C701B6015F
:104410000E949034181684F080908605909087054D
:10442000A0908805B0908905A5019401C701B60147
:104430000E94313387FF08C080927A0590927B05F5
:10444000A0927C05B0927D0581E080938E050E944C
:1044500034058091AF05811103C08CE090E002C06B
:104460008DE090E00E942B196093A8057093A90538
:104470008093AA059093AB0588E0E4E4F1E0DE01C7
:10448000999601900D928A95E1F788E0ECE4F1E0CD
:10449000DE01919601900D928A95E1F788E0E4E5BE
:1044A000F1E0DE01599601900D928A95E1F788E0DE
:1044B000ECE5F1E0DE01519601900D928A95E1F76D
:1044C00088E0E4E6F1E0DE01199601900D928A950C
:1044D000E1F788E0ECE6F1E0DE01119601900D9243
:1044E0008A95E1F7BE01675D7F4F81E00E94071C5E
:1044F000BE016F5D7F4F82E00E94071CBE01675EB8
:104500007F4F83E00E94071CBE016F5E7F4F84E0F7
:104510000E94071CBE01675F7F4F85E00E94071C59
:10452000BE016F5F7F4F86E00E94071C88EE95E01A
:104530000E945C2161E086E00E94771B61E088EECA
:1045400095E00E94532161E087E00E94771B62E0C2
:1045500088EE95E00E94532161E08AE00E94771B7B
:1045600065E088EE95E00E94532166E088EE95E0D4
:104570000E94532162E086E00E94771B63E088EE90
:1045800095E00E94532162E087E00E94771B64E07F
:1045900088EE95E00E94532162E08AE00E94771B3A
:1045A00065E088EE95E00E94532166E088EE95E094
:1045B0000E94532120E030E045ED52E062E088E0C7
:1045C0000E94111724E931E148ED52E062E08CE0ED
:1045D0000E9411170E94251668E271E082E00E9495
:1045E000071C60E271E083E00E94071C68E171E053
:1045F00084E00E94071C60E171E085E00E94071CD6
:1046000068E071E086E00E94071C60E071E087E0EE
:104610000E94071C1092C0051092BC051092BD05A7
:104620001092BE051092BF051092B8051092B90500
:104630001092BA051092BB051092B7058091C30580
:10464000823009F43CC2833009F456C5813011F040
:104650000C943A310E9449168091AF05811105C032
:1046600080E090E0ACE0B2E404C080E090E0AEEB2B
:10467000B2E489839A83AB83BC83198A8091A705AE
:10468000811102C00E94760686E090E00E946621B9
:10469000809397050E94CD1642E062E082E00E947E
:1046A0009B0B898B0E94491610929E051092BC05A7
:1046B0001092BD051092BE051092BF051092B8056C
:1046C0001092B9051092BA051092BB0581E0898756
:1046D0008091AF05813049F466E676E686E690E49F
:1046E0006AAB7BAB8CAB9DAB08C080E090E0A0E0F8
:1046F000B0E48AAB9BABACABBDAB312C212C19AA7F
:104700004CE3442E512C612C712C8989882309F4A7
:10471000EBC40E94E30AC980DA80EB80FC80C0927F
:104720009305D0929405E0929505F09296056091DC
:10473000B1057091B2058091B3059091B405609375
:104740008F05709390058093910590939205209129
:104750009E0521110AC0A70196010E94903487FD91
:1047600029C091E090939E0525C02AA93BA94CA998
:104770005DA90E94C532A70196010E94313387FFCF
:1047800019C08091E7058130A9F410929E0510921E
:10479000BC051092BD051092BE051092BF05409257
:1047A000B8055092B9056092BA057092BB05312CDC
:1047B000212C19AA10919E05112351F0A9A9A1112C
:1047C00007C06AEF70E083E00E94381BB1E0B9AB2C
:1047D00041E0612F88E00E9447048EE00E94981F0C
:1047E000892B91F48FE00E94981F892B69F46EE564
:1047F00071E080E090E00E9443208EE00E94981FCC
:10480000892B11F40C947631CE0141960E944B060F
:1048100062E370E08EE00E94E5188823B9F0809191
:10482000B60581110EC0E1E0E093B6050E947D203F
:1048300060939F057093A0058093A1059093A205B6
:1048400005C01092B60580E00E941E050E94080572
:10485000332061F18985FCE38F9FC00111240E9400
:10486000BD160E944D1EE090E305F090E405009116
:10487000E5051091E605C090E70521E041E060EF15
:10488000CE0109960E94261789852CE3829FC001DC
:104890001124092E000CAA0BBB0B8093B805909332
:1048A000B905A093BA05B093BB0536C00E944D1E52
:1048B000C980DA80EB80FC802091B1053091B2058F
:1048C0004091B3055091B40502E061E081E00E949F
:1048D000121A61E08CE00E94771B20E030E048EC87
:1048E00052E4C701B6010E94313387FF03C081E063
:1048F0000E94411942E0C701B6010E94DF1C62E03C
:1049000088EE95E00E94532163E081E00E94771BCE
:104910008CE890E00E948C1BC0909305D090940589
:10492000E0909505F09096052091A8053091A90595
:104930004091AA055091AB05C701B6010E94903481
:1049400087FD3BC08090B1059090B205A090B30563
:10495000B090B405A7019601C501B4010E9490343E
:1049600087FD2BC0E090E305F090E4050091E5059C
:104970001091E605C090E70521E040E064E687E994
:1049800095E00E9426176091970570E080E090E026
:104990000E94DE3300E0A50194010E94321A80914A
:1049A000B605882319F080E00E94D1078091B505F3
:1049B000882309F444C088E040C00E9450199091B7
:1049C000AF058091E7058090E3059090E405A09005
:1049D000E505B090E605911110C08F93C12CD12C44
:1049E00030E8E32E3EE3F32E00E010E020EA31E46D
:1049F00040E050E06CED72E40FC08F93C12CD12CDD
:104A000020E8E22E2EE3F22E00E010E028E832E467
:104A100040E050E066E673E4CE0101960E94B617CE
:104A20000F908091B605882319F081E00E94D1078C
:104A30008091B505882319F083E60E943C05222069
:104A4000B9F18091B8059091B9050E94BD16C0904A
:104A5000B805D090B905E090BA05F090BB0536E0F6
:104A6000C316D104E104F10408F04FCE67E870E00A
:104A700081E00E94381BCD28CE28CF2809F045CEF2
:104A800062E573E083E00E94381B1092BC0510922F
:104A9000BD051092BE051092BF054092B805509218
:104AA000B9056092BA057092BB05312C212C2DCE30
:104AB0008091BC059091BD050E94BD1626CE0E9436
:104AC0003D160E946B1961E082E00E94771B88EA24
:104AD00090E00E948C1B63E08CE00E94771B8FE9C2
:104AE00090E00E948C1B42E062E082E00E949B0BFF
:104AF000811103C081E08093C2050E943D1680E2CF
:104B00008093B0058091A705811102C00E947606AE
:104B100084E590E00E946621882319F161E081E03C
:104B20000E94771B89EB90E00E948C1B0E94C516A7
:104B300042E062E082E00E949B0B8093C1058823E3
:104B400081F085E590E00E9466218093A605982F6C
:104B5000990F990F890F805E8093B00581E0809353
:104B6000A5050E943D168091C105811149C00E9492
:104B7000CD1642E062E082E00E949B0B8093A50587
:104B80000E943D168091A505882309F4B1C21092B8
:104B9000A40560E087E590E00E9464211092C005C2
:104BA0001092A30561E083E00E94771B8CEC90E0FB
:104BB0000E948C1B98EEC92E93E0D92EE12CF12C8B
:104BC0000E94FB04C701B6010E9443208091B505F5
:104BD0000E94E5046EE571E080E090E00E944320D1
:104BE0006AEFC60ED11CE11CF11C7AECC71678E006
:104BF000D706E104F10421F70E943D161092A605A4
:104C00008091C205882309F495C081E089831092C0
:104C1000B8051092B9051092BA051092BB058981AA
:104C20008823E1F11091990561E082E00E94771BF1
:104C30008BED90E00E948C1B212F30E0ACE3B0E0C4
:104C40000E944F3522E046E00E94DE1D0E9465165C
:104C50000E944D1EE090E305F090E4050091E5050B
:104C60001091E605C090E7052FE04FE060EA89E982
:104C700095E00E94261762E370E08FE00E94E5183D
:104C80008111198262E370E08EE00E94E5188823AA
:104C900031F21092C3051092A5054CC00E94C516B2
:104CA00042E062E082E00E949B0B89830E946B19C4
:104CB0008981882371F32091990530E0ACE3B0E05D
:104CC0000E944F356093B8057093B9058093BA057B
:104CD0009093BB050E94D80480919905882319F10F
:104CE000C090B805D090B905E090BA05F090BB052A
:104CF00061E082E00E94771B8DEE90E00E948C1BA9
:104D000022E046E0C701B6010E94DE1D41E061E0FD
:104D100080E00E944704CE0101960E944B068981E3
:104D20008111DACFB6CF6AEF70E085E00E94381BC0
:104D30000E946B190E947D2060939F057093A005CF
:104D40008093A1059093A2058091A505811106C0CD
:104D50008091A505882309F4C7C126C161E084E5D7
:104D600090E00E9464210091A605FF24F39488E05E
:104D7000E82E083068F76091A60585E590E00E946E
:104D800064218091A6058F5F8093A60510929E05F1
:104D90001092A3051092C0058091AF051091B00547
:104DA000811103C0812F90E003C0812F90E0029613
:104DB0000E942B1920E030E040E85DE30E9495342A
:104DC00060939A0570939B0580939C0590939D0535
:104DD0008091C105882349F086E590E00E94662114
:104DE000809399051092C10516C0812F90E004961A
:104DF0000E94662180939905682F86E590E00E94C5
:104E000064218091A605873031F480919905811144
:104E100002C0F092B70580919905ACE38A9FC0016A
:104E20001124092E000CAA0BBB0B8093B80590939C
:104E3000B905A093BA05B093BB050E94D8040E949F
:104E4000F50B8091A505882309F482CF011148C094
:104E500082E00E94571962E083E00E94771B83E1A1
:104E600091E00E948C1B63E081E00E94771B80E050
:104E700091E00E948C1B80E190E00E9466218130CD
:104E800019F40E94FB0409C062E083E10E94771BD1
:104E900063E088EE95E00E94532141E061E081E00B
:104EA0000E949B0B8823A1F287E190E00E9466217B
:104EB00081116CC08091B5050E94E50462E082E03A
:104EC0000E94771B82E291E00E948C1B0E94C51613
:104ED00041E062E081E00E949B0B811157C042C01B
:104EE000073009F05AC088E190E00E9466218111E4
:104EF0004DC0E092A60568E085E590E00E9464213F
:104F00008091B5050E94E5041092A3051092C0059A
:104F100062E083E00E94771B83E391E00E948C1B98
:104F20000E94C51686E190E00E946621813041F41E
:104F30008091AC05811104C041E062E081E003C0D2
:104F400041E062E082E00E949B0B81111FC089E476
:104F500090E00E94662180939905682F86E590E095
:104F60000E9464216091B1057091B2058091B305F2
:104F70009091B4050E940E1B62E370E080E090E027
:104F80000E9443201092C3051092A5058091A505AB
:104F9000882309F4DDCE0E943D168091B0058B5F19
:104FA0008093B0050F5FE5CE0E94D8048091A805DC
:104FB0009091A905A091AA05B091AB0580939A059F
:104FC00090939B05A0939C05B0939D0510929E0520
:104FD00088E490E00E9466218093AE058091C1052F
:104FE000882371F08091A605893019F089E490E05A
:104FF00002C086E590E00E946621809399050BC06F
:1050000089E490E00E94662180939905682F86E5E7
:1050100090E00E94642187E590E00E9466218093E1
:10502000A405865B8093AD0590E00E946621809385
:10503000980586E090E00E94662180939705809114
:105040009905BCE38B9FC0011124092E000CAA0B0B
:10505000BB0B8093B8059093B905A093BA05B093A4
:10506000BB0589E08093A6050E94F50B8091A505FC
:105070008823D1F11092B6058BE190E00E94662161
:10508000823019F40E947B1402C00E94D01388EE73
:1050900095E00E945C2168EB7BE081E00E94381B78
:1050A00061E084E00E94771B8FE491E00E948C1BFA
:1050B00062E085E00E94771B82E491E00E948C1BF5
:1050C00064EC79E080E090E00E94432060E084E5B9
:1050D00090E00E94642160E087E590E00E946421F6
:1050E0001092A5051092C10588EE95E00E945C2102
:1050F0001092C3050C946C310E94311619AAE9A9CB
:10510000E23009F426C330F4EE2361F0E13009F413
:1051100019C1F5CFF9A9F33009F4C0C7F43009F487
:10512000E5C7EDCF61E080E00E94771B8BE591E061
:105130000E948C1B82E00E9457190E945D1662E358
:1051400070E08EE00E94E51821E02AAB81111AAAD6
:1051500062E370E081E10E94E51831E039AB811132
:1051600001C019AA62E370E08FE00E94E51888236D
:1051700011F40C9434311986B12CAA24A3941AEF9B
:10518000712E8B2D90E00E946621898368E0B61213
:1051900004C08091A7058823B1F1A98635C035E008
:1051A000B312BCC0C40101970E94662142E0480FBF
:1051B000E090E305F090E4050091E5051091E60527
:1051C000F201EA57FE4FC090E70522816081CE01CF
:1051D00001960E942617CE0109960E944B068985EA
:1051E000811102C0A9E0BA2E62E370E08FE00E9454
:1051F000E518882349F069818B2D90E00E94642195
:10520000BB2009F490C019868985882309F494C0CD
:105210008B2C912CF401EE0FFF1FEC58FE4F4081B8
:10522000518120E030E062E081E00E9411170E948D
:1052300095160E944D1EC980D12C73E0B79E2001A7
:10524000112462E0B1100BC08AE00E94771BCD28C8
:1052500019F48CE791E038C082E791E035C08CE02A
:105260000E94771B82E00E9441198FEF8B0D8630E0
:1052700070F586E0B81649F081E00E94411993E08C
:105280009B1518F0A4E6CA1AD1088CEF8B0D82305A
:1052900030F4F6017E9E60017F9ED00C11240D2C0F
:1052A000000CEE08FF08C701B6010E94E03340E0A1
:1052B00050E00E947119C701B6010E94B41DF6E0CA
:1052C000BF126DCF80E791E00E948C1B27C0B60112
:1052D000DD0C880B990B0E94E0336B017C0167E0C9
:1052E000B6120C94883120E030E048E452E4C70163
:1052F000B6010E94C43220E030E040E251E40E9456
:1053000036336B017C014EEF5FEFC701B6010E949F
:10531000711942E0C701B6010E94DF1CF201EA5791
:10532000FE4F418145CF89818093A705813009F0E7
:105330006ACFF5E0BF2E67CFB39468E06B1508F035
:1053400020CF90C761E080E00E94771B86E891E063
:105350000E948C1B82E00E9457190E94651662E32E
:1053600070E08EE00E94E51871E07AAB81111AAA14
:1053700062E370E080E10E94E518182F62E370E0BC
:1053800081E10E94E518811106C081E089AB1123FB
:1053900021F019AA02C092E099AB62E370E08FE0BD
:1053A0000E94E518882309F45FC7EAE07E2E662490
:1053B00063948091AC05813011F4198201C0698237
:1053C000072D10E0AAE17A1209C089E190E00E945D
:1053D0006621813019F41982C8010DC069827CE010
:1053E000771619F0B4E17B12F7CF8091AF058823CF
:1053F00099F3C80101960E9466218987472C512C98
:10540000C2010A971C01220C331C820D931D46EF2A
:10541000470D242F30E0220F331FD901AF55BE4F67
:10542000BFABAEAB842E912C1401FC01ED53FE4FAB
:10543000F9AFE8AF9C012E533E4F3BAF2AAFBC0102
:105440006F537E4F7DAF6CAF8981882309F4CEC046
:10545000EEA9FFA94081518120E030E062E081E0C7
:105460000E9411170E949516FAE07F1205C08985E7
:105470008093AF050E942516198562E08CE00E949A
:10548000771B22E12216310408F043C0F401EC5CE2
:10549000FF4F0C94AA3286E00E94411960E088EE2A
:1054A00095E00E94532182C0111103C087EE91E064
:1054B0007BC08FED91E078C083E00E944119612F9D
:1054C00070E080E090E00E94DE339B01AC0100E0E0
:1054D00069E089E00E94121A69C084E00E944119C3
:1054E000612F70E080E090E00E94DE334EEF5FEFCE
:1054F0000E947119812F0E94001C8DED91E054C013
:1055000085E00E944119812F0E94001C8BED91E0E3
:105510004BC084E00E944119111103C087ED91E056
:1055200043C0113009F042C083ED91E03DC011113C
:1055300003C08BEC91E038C083EC91E035C085E08E
:105540000E94411962E080E10E94771B111103C0A3
:105550008FEB91E029C0113049F58BEB91E024C02D
:10556000111107C062E08CE00E94771B83EB91E091
:105570001BC03CE3139FB0011124072E000C880BC5
:10558000990B21E04CE00E94DE1D10C0111103C0F8
:105590008BEA91E009C0113019F483EA91E004C06C
:1055A000123021F48BE991E00E948C1B0E944D1E69
:1055B000E090E305F090E4050091E5051091E60523
:1055C000C090E705A8ADB9AD2C91EAADFBAD408127
:1055D000ACADBDAD6C91CE0109960E942617CE01EF
:1055E00001960E944B068981811106C07394BBE12C
:1055F000B71508F0DECE36C662E370E08FE00E9499
:10560000E518882309F420CFECE07E1609F455C094
:10561000F4E17F1609F451C06985C2010E9464213A
:105620002AE0721206C089858093AF050E94251674
:105630008EC03BE0731204C089858093AC0587C09F
:1056400060E1761224C08091AC05813009F07FC002
:1056500082010D5F1F4F872D90E0081719072CF06E
:1056600061E00E9464217394F6CF6EE6C201049655
:105670000E94642166EEC20105960E94642161E0E9
:10568000C20106960E94642176E1772E60C073E124
:1056900077125DC083E190E00E946621811157C0BE
:1056A00060E584E190E00E94642160EB85E190E098
:1056B0000E94642165E1762E4AC08091AF05820187
:1056C0000F5F1F4F6985811118C0C2010E946421BC
:1056D000698570E080E090E00E94E03326E636E6DF
:1056E00046EE5FE30E94953420E030E040E052E473
:1056F0000E94C5320E94AF3315C070E0605271093C
:10570000072E000C880B990B0E94E03326E636E644
:1057100046EE5FE30E9436330E94AF33C2010E941F
:1057200064216985C8010E9464218CE078120EC052
:10573000698570E080E090E00E94DE336093A80508
:105740007093A9058093AA059093AB057394198271
:1057500055CE61E080E00E94771B8FEE91E00E94C1
:105760008C1B0E94651662E370E08EE00E94E518D3
:1057700071E07AAB81111AAA62E370E080E10E94C5
:10578000E518882311F081E089AB62E370E081E1E4
:105790000E94E518882311F093E099AB62E370E072
:1057A0008FE00E94E518882309F45EC580E28093AB
:1057B000B005ADE6B2E0BFABAEABEDE0F2E0F9AF05
:1057C000E8AF27EF31E029963FAF2EAF29973AEFA8
:1057D00022963FAF22971EAE1FAE21961FAE219795
:1057E000212C61961CAE1DAE1EAE1FAE619761E00E
:1057F00027966FAF2797712C81E089A3F090AF05B2
:105800000091B00510E0C801F1103CC00E942B19B6
:1058100069837A838B839C83772081F0C801059705
:105820000E942B1920E030E040E85DE30E949534AF
:105830006EAF7FAF21968FAF2197292EAEA9BFA95A
:105840008D919D910D90BC91A02D26968CAF9DAF12
:10585000AEAFBFAF2697EEA9FFA964805580468002
:10586000378060857185828593852D966CAF7DAF7D
:105870008EAF9FAF2D97812C912C90E6A92E90E4AE
:10588000B92E46C002960E942B1969837A838B83B6
:105890009C83772081F0C80103970E942B1920E098
:1058A00030E040E85DE30E9495346EAF7FAF219613
:1058B0008FAF2197292EA8ADB9AD6D917D918D91B6
:1058C0009C91139726966CAF7DAF8EAF9FAF2697B6
:1058D00014966C90149715965C90159716964C90AC
:1058E000169717963C90179718966D917D918D910C
:1058F0009C911B972D966CAF7DAF8EAF9FAF2D9770
:105900008AE9882E89E9982E89ECA82E80E4B82EA1
:105910002796BFAD2797B11103C0812C912C54015C
:1059200020E030E040E85DE369817A818B819C81F1
:105930000E94953469837A838B839C83772009F452
:10594000E4C0A50194016EAD7FAD21968FAD219786
:10595000922D0E94C4329B01AC0126966CAD7DADA8
:105960008EAD9FAD26970E94313387FF97C0229658
:10597000EFAD2297E23008F4CBC020E030E040E801
:1059800051E46EAD7FAD21968FAD2197922D0E948F
:10599000953469837A838B839C830E94AF332091F3
:1059A000B005F11038C0822F90E00E94051920E068
:1059B00030E040E85DE369817A818B819C810E94BF
:1059C000953426E636E646EE5FE30E94953420E005
:1059D00030E040E052E40E94C53269837A838B83D1
:1059E0009C83CE0101960E94951820E030E040E8AB
:1059F00051E469817A818B819C810E94953469830D
:105A00007A838B839C830E94AF332091B00530E072
:105A1000C901029637C030E0C90102960E940519FB
:105A200020E030E040E85DE369817A818B819C81F0
:105A30000E94953420E030E040E052E40E94C432FD
:105A400026E636E646EE5FE30E94363369837A83C4
:105A50008B839C83CE0101960E94951820E030E054
:105A600040E851E469817A818B819C810E94953460
:105A700069837A838B839C830E94AF332091B00526
:105A8000822F90E00E9405198091B00590E060E0BF
:105A900004960E94642119A21AAEBCC02796FFADDD
:105AA0002797FF23D9F0A501940161966CAD7DADD8
:105AB0008EAD9FAD61970E94C4327B018C01262D73
:105AC000352D442D532D0E94903487FD24C06E2C1B
:105AD0005F2C402E312E21E02AAF9CC02EAD3FAD71
